{
  "_format": "hh-sol-artifact-1",
  "contractName": "NFTMarketPlaceAurora",
  "sourceName": "contracts/NFTMarketPlaceAurora.sol",
  "abi": [
    {
      "inputs": [],
      "stateMutability": "nonpayable",
      "type": "constructor"
    },
    {
      "anonymous": false,
      "inputs": [
        {
          "indexed": true,
          "internalType": "address",
          "name": "owner",
          "type": "address"
        },
        {
          "indexed": true,
          "internalType": "address",
          "name": "approved",
          "type": "address"
        },
        {
          "indexed": true,
          "internalType": "uint256",
          "name": "tokenId",
          "type": "uint256"
        }
      ],
      "name": "Approval",
      "type": "event"
    },
    {
      "anonymous": false,
      "inputs": [
        {
          "indexed": true,
          "internalType": "address",
          "name": "owner",
          "type": "address"
        },
        {
          "indexed": true,
          "internalType": "address",
          "name": "operator",
          "type": "address"
        },
        {
          "indexed": false,
          "internalType": "bool",
          "name": "approved",
          "type": "bool"
        }
      ],
      "name": "ApprovalForAll",
      "type": "event"
    },
    {
      "anonymous": false,
      "inputs": [
        {
          "indexed": false,
          "internalType": "uint256",
          "name": "_fromTokenId",
          "type": "uint256"
        },
        {
          "indexed": false,
          "internalType": "uint256",
          "name": "_toTokenId",
          "type": "uint256"
        }
      ],
      "name": "BatchMetadataUpdate",
      "type": "event"
    },
    {
      "anonymous": false,
      "inputs": [
        {
          "indexed": false,
          "internalType": "uint256",
          "name": "_tokenId",
          "type": "uint256"
        }
      ],
      "name": "MetadataUpdate",
      "type": "event"
    },
    {
      "anonymous": false,
      "inputs": [
        {
          "indexed": true,
          "internalType": "address",
          "name": "from",
          "type": "address"
        },
        {
          "indexed": true,
          "internalType": "address",
          "name": "to",
          "type": "address"
        },
        {
          "indexed": true,
          "internalType": "uint256",
          "name": "tokenId",
          "type": "uint256"
        }
      ],
      "name": "Transfer",
      "type": "event"
    },
    {
      "inputs": [
        {
          "internalType": "uint256[]",
          "name": "productIds",
          "type": "uint256[]"
        }
      ],
      "name": "BuyProducts",
      "outputs": [],
      "stateMutability": "payable",
      "type": "function"
    },
    {
      "inputs": [],
      "name": "GetAllProducts",
      "outputs": [
        {
          "components": [
            {
              "internalType": "uint256",
              "name": "ProductId",
              "type": "uint256"
            },
            {
              "internalType": "string",
              "name": "ProductURI",
              "type": "string"
            },
            {
              "internalType": "address payable",
              "name": "owner",
              "type": "address"
            },
            {
              "internalType": "address payable",
              "name": "seller",
              "type": "address"
            },
            {
              "internalType": "uint256",
              "name": "price",
              "type": "uint256"
            },
            {
              "internalType": "bool",
              "name": "status",
              "type": "bool"
            },
            {
              "internalType": "string",
              "name": "ProductName",
              "type": "string"
            }
          ],
          "internalType": "struct NFTMarketPlaceAurora.ProductProperties[]",
          "name": "",
          "type": "tuple[]"
        }
      ],
      "stateMutability": "view",
      "type": "function"
    },
    {
      "inputs": [
        {
          "internalType": "string",
          "name": "ProductURI",
          "type": "string"
        },
        {
          "internalType": "uint256",
          "name": "price",
          "type": "uint256"
        },
        {
          "internalType": "string",
          "name": "name",
          "type": "string"
        }
      ],
      "name": "MintProduct",
      "outputs": [],
      "stateMutability": "payable",
      "type": "function"
    },
    {
      "inputs": [
        {
          "internalType": "uint256",
          "name": "productid",
          "type": "uint256"
        },
        {
          "internalType": "uint256",
          "name": "price",
          "type": "uint256"
        }
      ],
      "name": "Resale",
      "outputs": [],
      "stateMutability": "payable",
      "type": "function"
    },
    {
      "inputs": [
        {
          "internalType": "uint256",
          "name": "Productid",
          "type": "uint256"
        }
      ],
      "name": "SaleProduct",
      "outputs": [],
      "stateMutability": "payable",
      "type": "function"
    },
    {
      "inputs": [
        {
          "internalType": "address",
          "name": "to",
          "type": "address"
        },
        {
          "internalType": "uint256",
          "name": "tokenId",
          "type": "uint256"
        }
      ],
      "name": "approve",
      "outputs": [],
      "stateMutability": "nonpayable",
      "type": "function"
    },
    {
      "inputs": [
        {
          "internalType": "address",
          "name": "owner",
          "type": "address"
        }
      ],
      "name": "balanceOf",
      "outputs": [
        {
          "internalType": "uint256",
          "name": "",
          "type": "uint256"
        }
      ],
      "stateMutability": "view",
      "type": "function"
    },
    {
      "inputs": [
        {
          "internalType": "uint256",
          "name": "tokenId",
          "type": "uint256"
        }
      ],
      "name": "getApproved",
      "outputs": [
        {
          "internalType": "address",
          "name": "",
          "type": "address"
        }
      ],
      "stateMutability": "view",
      "type": "function"
    },
    {
      "inputs": [],
      "name": "getMyProducts",
      "outputs": [
        {
          "components": [
            {
              "internalType": "uint256",
              "name": "ProductId",
              "type": "uint256"
            },
            {
              "internalType": "string",
              "name": "ProductURI",
              "type": "string"
            },
            {
              "internalType": "address payable",
              "name": "owner",
              "type": "address"
            },
            {
              "internalType": "address payable",
              "name": "seller",
              "type": "address"
            },
            {
              "internalType": "uint256",
              "name": "price",
              "type": "uint256"
            },
            {
              "internalType": "bool",
              "name": "status",
              "type": "bool"
            },
            {
              "internalType": "string",
              "name": "ProductName",
              "type": "string"
            }
          ],
          "internalType": "struct NFTMarketPlaceAurora.ProductProperties[]",
          "name": "",
          "type": "tuple[]"
        }
      ],
      "stateMutability": "view",
      "type": "function"
    },
    {
      "inputs": [
        {
          "internalType": "address",
          "name": "owner",
          "type": "address"
        },
        {
          "internalType": "address",
          "name": "operator",
          "type": "address"
        }
      ],
      "name": "isApprovedForAll",
      "outputs": [
        {
          "internalType": "bool",
          "name": "",
          "type": "bool"
        }
      ],
      "stateMutability": "view",
      "type": "function"
    },
    {
      "inputs": [],
      "name": "name",
      "outputs": [
        {
          "internalType": "string",
          "name": "",
          "type": "string"
        }
      ],
      "stateMutability": "view",
      "type": "function"
    },
    {
      "inputs": [
        {
          "internalType": "uint256",
          "name": "tokenId",
          "type": "uint256"
        }
      ],
      "name": "ownerOf",
      "outputs": [
        {
          "internalType": "address",
          "name": "",
          "type": "address"
        }
      ],
      "stateMutability": "view",
      "type": "function"
    },
    {
      "inputs": [
        {
          "internalType": "address",
          "name": "from",
          "type": "address"
        },
        {
          "internalType": "address",
          "name": "to",
          "type": "address"
        },
        {
          "internalType": "uint256",
          "name": "tokenId",
          "type": "uint256"
        }
      ],
      "name": "safeTransferFrom",
      "outputs": [],
      "stateMutability": "nonpayable",
      "type": "function"
    },
    {
      "inputs": [
        {
          "internalType": "address",
          "name": "from",
          "type": "address"
        },
        {
          "internalType": "address",
          "name": "to",
          "type": "address"
        },
        {
          "internalType": "uint256",
          "name": "tokenId",
          "type": "uint256"
        },
        {
          "internalType": "bytes",
          "name": "data",
          "type": "bytes"
        }
      ],
      "name": "safeTransferFrom",
      "outputs": [],
      "stateMutability": "nonpayable",
      "type": "function"
    },
    {
      "inputs": [
        {
          "internalType": "address",
          "name": "operator",
          "type": "address"
        },
        {
          "internalType": "bool",
          "name": "approved",
          "type": "bool"
        }
      ],
      "name": "setApprovalForAll",
      "outputs": [],
      "stateMutability": "nonpayable",
      "type": "function"
    },
    {
      "inputs": [
        {
          "internalType": "bytes4",
          "name": "interfaceId",
          "type": "bytes4"
        }
      ],
      "name": "supportsInterface",
      "outputs": [
        {
          "internalType": "bool",
          "name": "",
          "type": "bool"
        }
      ],
      "stateMutability": "view",
      "type": "function"
    },
    {
      "inputs": [],
      "name": "symbol",
      "outputs": [
        {
          "internalType": "string",
          "name": "",
          "type": "string"
        }
      ],
      "stateMutability": "view",
      "type": "function"
    },
    {
      "inputs": [
        {
          "internalType": "uint256",
          "name": "tokenId",
          "type": "uint256"
        }
      ],
      "name": "tokenURI",
      "outputs": [
        {
          "internalType": "string",
          "name": "",
          "type": "string"
        }
      ],
      "stateMutability": "view",
      "type": "function"
    },
    {
      "inputs": [
        {
          "internalType": "address",
          "name": "from",
          "type": "address"
        },
        {
          "internalType": "address",
          "name": "to",
          "type": "address"
        },
        {
          "internalType": "uint256",
          "name": "tokenId",
          "type": "uint256"
        }
      ],
      "name": "transferFrom",
      "outputs": [],
      "stateMutability": "nonpayable",
      "type": "function"
    }
  ],
  "bytecode": "0x6080604052662386f26fc100006009553480156200001c57600080fd5b506040518060400160405280600e81526020017f4e46544d61726b6574506c6163650000000000000000000000000000000000008152506040518060400160405280600481526020017f4e46544d000000000000000000000000000000000000000000000000000000008152508160009080519060200190620000a192919062000104565b508060019080519060200190620000ba92919062000104565b50505033600760006101000a81548173ffffffffffffffffffffffffffffffffffffffff021916908373ffffffffffffffffffffffffffffffffffffffff16021790555062000219565b8280546200011290620001b4565b90600052602060002090601f01602090048101928262000136576000855562000182565b82601f106200015157805160ff191683800117855562000182565b8280016001018555821562000182579182015b828111156200018157825182559160200191906001019062000164565b5b50905062000191919062000195565b5090565b5b80821115620001b057600081600090555060010162000196565b5090565b60006002820490506001821680620001cd57607f821691505b60208210811415620001e457620001e3620001ea565b5b50919050565b7f4e487b7100000000000000000000000000000000000000000000000000000000600052602260045260246000fd5b613e9a80620002296000396000f3fe6080604052600436106101145760003560e01c806372d00e6a116100a0578063c87b56dd11610064578063c87b56dd14610393578063dd6ce58a146103d0578063e985e9c5146103ec578063ef6d44b114610429578063fdca4ca31461044557610114565b806372d00e6a146102cf57806381a17a4a146102eb57806395d89b4114610316578063a22cb46514610341578063b88d4fde1461036a57610114565b8063145aac05116100e7578063145aac05146101e757806323b872dd1461020357806342842e0e1461022c5780636352211e1461025557806370a082311461029257610114565b806301ffc9a71461011957806306fdde0314610156578063081812fc14610181578063095ea7b3146101be575b600080fd5b34801561012557600080fd5b50610140600480360381019061013b9190612f17565b610470565b60405161014d9190613523565b60405180910390f35b34801561016257600080fd5b5061016b6104d1565b604051610178919061353e565b60405180910390f35b34801561018d57600080fd5b506101a860048036038101906101a39190612fe8565b610563565b6040516101b5919061349a565b60405180910390f35b3480156101ca57600080fd5b506101e560048036038101906101e09190612e9a565b6105a9565b005b61020160048036038101906101fc9190612ed6565b6106c1565b005b34801561020f57600080fd5b5061022a60048036038101906102259190612d94565b610796565b005b34801561023857600080fd5b50610253600480360381019061024e9190612d94565b6107f6565b005b34801561026157600080fd5b5061027c60048036038101906102779190612fe8565b610816565b604051610289919061349a565b60405180910390f35b34801561029e57600080fd5b506102b960048036038101906102b49190612d2f565b61089d565b6040516102c69190613700565b60405180910390f35b6102e960048036038101906102e49190612f69565b610955565b005b3480156102f757600080fd5b50610300610b49565b60405161030d9190613501565b60405180910390f35b34801561032257600080fd5b5061032b610e88565b604051610338919061353e565b60405180910390f35b34801561034d57600080fd5b5061036860048036038101906103639190612e5e565b610f1a565b005b34801561037657600080fd5b50610391600480360381019061038c9190612de3565b610f30565b005b34801561039f57600080fd5b506103ba60048036038101906103b59190612fe8565b610f92565b6040516103c7919061353e565b60405180910390f35b6103ea60048036038101906103e59190613011565b6110a5565b005b3480156103f857600080fd5b50610413600480360381019061040e9190612d58565b6111a8565b6040516104209190613523565b60405180910390f35b610443600480360381019061043e9190612fe8565b61123c565b005b34801561045157600080fd5b5061045a6113cc565b6040516104679190613501565b60405180910390f35b6000634906490660e01b7bffffffffffffffffffffffffffffffffffffffffffffffffffffffff1916827bffffffffffffffffffffffffffffffffffffffffffffffffffffffff191614806104ca57506104c98261191e565b5b9050919050565b6060600080546104e090613979565b80601f016020809104026020016040519081016040528092919081815260200182805461050c90613979565b80156105595780601f1061052e57610100808354040283529160200191610559565b820191906000526020600020905b81548152906001019060200180831161053c57829003601f168201915b5050505050905090565b600061056e82611a00565b6004600083815260200190815260200160002060009054906101000a900473ffffffffffffffffffffffffffffffffffffffff169050919050565b60006105b482610816565b90508073ffffffffffffffffffffffffffffffffffffffff168373ffffffffffffffffffffffffffffffffffffffff161415610625576040517f08c379a000000000000000000000000000000000000000000000000000000000815260040161061c906136c0565b60405180910390fd5b8073ffffffffffffffffffffffffffffffffffffffff16610644611a4b565b73ffffffffffffffffffffffffffffffffffffffff16148061067357506106728161066d611a4b565b6111a8565b5b6106b2576040517f08c379a00000000000000000000000000000000000000000000000000000000081526004016106a9906136e0565b60405180910390fd5b6106bc8383611a53565b505050565b60005b815181101561072957610716828281518110610709577f4e487b7100000000000000000000000000000000000000000000000000000000600052603260045260246000fd5b602002602001015161123c565b8080610721906139dc565b9150506106c4565b50600760009054906101000a900473ffffffffffffffffffffffffffffffffffffffff1673ffffffffffffffffffffffffffffffffffffffff166108fc349081150290604051600060405180830381858888f19350505050158015610792573d6000803e3d6000fd5b5050565b6107a76107a1611a4b565b82611b0c565b6107e6576040517f08c379a00000000000000000000000000000000000000000000000000000000081526004016107dd90613560565b60405180910390fd5b6107f1838383611ba1565b505050565b61081183838360405180602001604052806000815250610f30565b505050565b60008061082283611e9b565b9050600073ffffffffffffffffffffffffffffffffffffffff168173ffffffffffffffffffffffffffffffffffffffff161415610894576040517f08c379a000000000000000000000000000000000000000000000000000000000815260040161088b906136a0565b60405180910390fd5b80915050919050565b60008073ffffffffffffffffffffffffffffffffffffffff168273ffffffffffffffffffffffffffffffffffffffff16141561090e576040517f08c379a000000000000000000000000000000000000000000000000000000000815260040161090590613640565b60405180910390fd5b600360008373ffffffffffffffffffffffffffffffffffffffff1673ffffffffffffffffffffffffffffffffffffffff168152602001908152602001600020549050919050565b60008211610998576040517f08c379a000000000000000000000000000000000000000000000000000000000815260040161098f90613620565b60405180910390fd5b6109a26008611ed8565b60006109ae6008611eee565b90506109ba3382611efc565b6109c48185611f1a565b6040518060e001604052808281526020018581526020013073ffffffffffffffffffffffffffffffffffffffff1681526020013373ffffffffffffffffffffffffffffffffffffffff16815260200184815260200160011515815260200183815250600a6000838152602001908152602001600020600082015181600001556020820151816001019080519060200190610a5f929190612a52565b5060408201518160020160006101000a81548173ffffffffffffffffffffffffffffffffffffffff021916908373ffffffffffffffffffffffffffffffffffffffff16021790555060608201518160030160006101000a81548173ffffffffffffffffffffffffffffffffffffffff021916908373ffffffffffffffffffffffffffffffffffffffff1602179055506080820151816004015560a08201518160050160006101000a81548160ff02191690831515021790555060c0820151816006019080519060200190610b34929190612a52565b50905050610b43333083611ba1565b50505050565b60606000610b576008611eee565b905060008167ffffffffffffffff811115610b9b577f4e487b7100000000000000000000000000000000000000000000000000000000600052604160045260246000fd5b604051908082528060200260200182016040528015610bd457816020015b610bc1612ad8565b815260200190600190039081610bb95790505b5090506000805b83811015610e7e576000600182610bf2919061385b565b90506000600a60008381526020019081526020016000209050806040518060e001604052908160008201548152602001600182018054610c3190613979565b80601f0160208091040260200160405190810160405280929190818152602001828054610c5d90613979565b8015610caa5780601f10610c7f57610100808354040283529160200191610caa565b820191906000526020600020905b815481529060010190602001808311610c8d57829003601f168201915b505050505081526020016002820160009054906101000a900473ffffffffffffffffffffffffffffffffffffffff1673ffffffffffffffffffffffffffffffffffffffff1673ffffffffffffffffffffffffffffffffffffffff1681526020016003820160009054906101000a900473ffffffffffffffffffffffffffffffffffffffff1673ffffffffffffffffffffffffffffffffffffffff1673ffffffffffffffffffffffffffffffffffffffff168152602001600482015481526020016005820160009054906101000a900460ff16151515158152602001600682018054610d9490613979565b80601f0160208091040260200160405190810160405280929190818152602001828054610dc090613979565b8015610e0d5780601f10610de257610100808354040283529160200191610e0d565b820191906000526020600020905b815481529060010190602001808311610df057829003601f168201915b505050505081525050858581518110610e4f577f4e487b7100000000000000000000000000000000000000000000000000000000600052603260045260246000fd5b6020026020010181905250600184610e67919061385b565b935050508080610e76906139dc565b915050610bdb565b5081935050505090565b606060018054610e9790613979565b80601f0160208091040260200160405190810160405280929190818152602001828054610ec390613979565b8015610f105780601f10610ee557610100808354040283529160200191610f10565b820191906000526020600020905b815481529060010190602001808311610ef357829003601f168201915b5050505050905090565b610f2c610f25611a4b565b8383611fc5565b5050565b610f41610f3b611a4b565b83611b0c565b610f80576040517f08c379a0000000000000000000000000000000000000000000000000000000008152600401610f7790613560565b60405180910390fd5b610f8c84848484612132565b50505050565b6060610f9d82611a00565b6000600660008481526020019081526020016000208054610fbd90613979565b80601f0160208091040260200160405190810160405280929190818152602001828054610fe990613979565b80156110365780601f1061100b57610100808354040283529160200191611036565b820191906000526020600020905b81548152906001019060200180831161101957829003601f168201915b50505050509050600061104761218e565b905060008151141561105d5781925050506110a0565b60008251111561109257808260405160200161107a929190613476565b604051602081830303815290604052925050506110a0565b61109b846121a5565b925050505b919050565b6001600a600084815260200190815260200160002060050160006101000a81548160ff02191690831515021790555030600a600084815260200190815260200160002060020160006101000a81548173ffffffffffffffffffffffffffffffffffffffff021916908373ffffffffffffffffffffffffffffffffffffffff16021790555033600a600084815260200190815260200160002060030160006101000a81548173ffffffffffffffffffffffffffffffffffffffff021916908373ffffffffffffffffffffffffffffffffffffffff16021790555080600a6000848152602001908152602001600020600401819055506111a4333084611ba1565b5050565b6000600560008473ffffffffffffffffffffffffffffffffffffffff1673ffffffffffffffffffffffffffffffffffffffff16815260200190815260200160002060008373ffffffffffffffffffffffffffffffffffffffff1673ffffffffffffffffffffffffffffffffffffffff16815260200190815260200160002060009054906101000a900460ff16905092915050565b6000600a60008381526020019081526020016000206004015490506000600a600084815260200190815260200160002060030160009054906101000a900473ffffffffffffffffffffffffffffffffffffffff1690506000600a600085815260200190815260200160002060050160006101000a81548160ff02191690831515021790555033600a600085815260200190815260200160002060030160006101000a81548173ffffffffffffffffffffffffffffffffffffffff021916908373ffffffffffffffffffffffffffffffffffffffff16021790555033600a600085815260200190815260200160002060020160006101000a81548173ffffffffffffffffffffffffffffffffffffffff021916908373ffffffffffffffffffffffffffffffffffffffff160217905550611376303385611ba1565b61138030846105a9565b8073ffffffffffffffffffffffffffffffffffffffff166108fc839081150290604051600060405180830381858888f193505050501580156113c6573d6000803e3d6000fd5b50505050565b606060006113da6008611eee565b90506000806000905060005b838110156114ff573373ffffffffffffffffffffffffffffffffffffffff16600a6000600184611416919061385b565b815260200190815260200160002060020160009054906101000a900473ffffffffffffffffffffffffffffffffffffffff1673ffffffffffffffffffffffffffffffffffffffff1614806114d757503373ffffffffffffffffffffffffffffffffffffffff16600a600060018461148d919061385b565b815260200190815260200160002060030160009054906101000a900473ffffffffffffffffffffffffffffffffffffffff1673ffffffffffffffffffffffffffffffffffffffff16145b156114ec576001836114e9919061385b565b92505b80806114f7906139dc565b9150506113e6565b5060008267ffffffffffffffff811115611542577f4e487b7100000000000000000000000000000000000000000000000000000000600052604160045260246000fd5b60405190808252806020026020018201604052801561157b57816020015b611568612ad8565b8152602001906001900390816115605790505b50905060005b83811015611913573373ffffffffffffffffffffffffffffffffffffffff16600a60006001846115b1919061385b565b815260200190815260200160002060020160009054906101000a900473ffffffffffffffffffffffffffffffffffffffff1673ffffffffffffffffffffffffffffffffffffffff16148061167257503373ffffffffffffffffffffffffffffffffffffffff16600a6000600184611628919061385b565b815260200190815260200160002060030160009054906101000a900473ffffffffffffffffffffffffffffffffffffffff1673ffffffffffffffffffffffffffffffffffffffff16145b15611900576000600182611686919061385b565b90506000600a60008381526020019081526020016000209050806040518060e0016040529081600082015481526020016001820180546116c590613979565b80601f01602080910402602001604051908101604052809291908181526020018280546116f190613979565b801561173e5780601f106117135761010080835404028352916020019161173e565b820191906000526020600020905b81548152906001019060200180831161172157829003601f168201915b505050505081526020016002820160009054906101000a900473ffffffffffffffffffffffffffffffffffffffff1673ffffffffffffffffffffffffffffffffffffffff1673ffffffffffffffffffffffffffffffffffffffff1681526020016003820160009054906101000a900473ffffffffffffffffffffffffffffffffffffffff1673ffffffffffffffffffffffffffffffffffffffff1673ffffffffffffffffffffffffffffffffffffffff168152602001600482015481526020016005820160009054906101000a900460ff1615151515815260200160068201805461182890613979565b80601f016020809104026020016040519081016040528092919081815260200182805461185490613979565b80156118a15780601f10611876576101008083540402835291602001916118a1565b820191906000526020600020905b81548152906001019060200180831161188457829003601f168201915b5050505050815250508486815181106118e3577f4e487b7100000000000000000000000000000000000000000000000000000000600052603260045260246000fd5b60200260200101819052506001856118fb919061385b565b945050505b808061190b906139dc565b915050611581565b508094505050505090565b60007f80ac58cd000000000000000000000000000000000000000000000000000000007bffffffffffffffffffffffffffffffffffffffffffffffffffffffff1916827bffffffffffffffffffffffffffffffffffffffffffffffffffffffff191614806119e957507f5b5e139f000000000000000000000000000000000000000000000000000000007bffffffffffffffffffffffffffffffffffffffffffffffffffffffff1916827bffffffffffffffffffffffffffffffffffffffffffffffffffffffff1916145b806119f957506119f88261220d565b5b9050919050565b611a0981612277565b611a48576040517f08c379a0000000000000000000000000000000000000000000000000000000008152600401611a3f906136a0565b60405180910390fd5b50565b600033905090565b816004600083815260200190815260200160002060006101000a81548173ffffffffffffffffffffffffffffffffffffffff021916908373ffffffffffffffffffffffffffffffffffffffff160217905550808273ffffffffffffffffffffffffffffffffffffffff16611ac683610816565b73ffffffffffffffffffffffffffffffffffffffff167f8c5be1e5ebec7d5bd14f71427d1e84f3dd0314c0f7b2291e5b200ac8c7c3b92560405160405180910390a45050565b600080611b1883610816565b90508073ffffffffffffffffffffffffffffffffffffffff168473ffffffffffffffffffffffffffffffffffffffff161480611b5a5750611b5981856111a8565b5b80611b9857508373ffffffffffffffffffffffffffffffffffffffff16611b8084610563565b73ffffffffffffffffffffffffffffffffffffffff16145b91505092915050565b8273ffffffffffffffffffffffffffffffffffffffff16611bc182610816565b73ffffffffffffffffffffffffffffffffffffffff1614611c17576040517f08c379a0000000000000000000000000000000000000000000000000000000008152600401611c0e906135a0565b60405180910390fd5b600073ffffffffffffffffffffffffffffffffffffffff168273ffffffffffffffffffffffffffffffffffffffff161415611c87576040517f08c379a0000000000000000000000000000000000000000000000000000000008152600401611c7e906135e0565b60405180910390fd5b611c9483838360016122b8565b8273ffffffffffffffffffffffffffffffffffffffff16611cb482610816565b73ffffffffffffffffffffffffffffffffffffffff1614611d0a576040517f08c379a0000000000000000000000000000000000000000000000000000000008152600401611d01906135a0565b60405180910390fd5b6004600082815260200190815260200160002060006101000a81549073ffffffffffffffffffffffffffffffffffffffff02191690556001600360008573ffffffffffffffffffffffffffffffffffffffff1673ffffffffffffffffffffffffffffffffffffffff168152602001908152602001600020600082825403925050819055506001600360008473ffffffffffffffffffffffffffffffffffffffff1673ffffffffffffffffffffffffffffffffffffffff16815260200190815260200160002060008282540192505081905550816002600083815260200190815260200160002060006101000a81548173ffffffffffffffffffffffffffffffffffffffff021916908373ffffffffffffffffffffffffffffffffffffffff160217905550808273ffffffffffffffffffffffffffffffffffffffff168473ffffffffffffffffffffffffffffffffffffffff167fddf252ad1be2c89b69c2b068fc378daa952ba7f163c4a11628f55a4df523b3ef60405160405180910390a4611e9683838360016122be565b505050565b60006002600083815260200190815260200160002060009054906101000a900473ffffffffffffffffffffffffffffffffffffffff169050919050565b6001816000016000828254019250508190555050565b600081600001549050919050565b611f168282604051806020016040528060008152506122c4565b5050565b611f2382612277565b611f62576040517f08c379a0000000000000000000000000000000000000000000000000000000008152600401611f5990613660565b60405180910390fd5b80600660008481526020019081526020016000209080519060200190611f89929190612a52565b507ff8e1a15aba9398e019f0b49df1a4fde98ee17ae345cb5f6b5e2c27f5033e8ce782604051611fb99190613700565b60405180910390a15050565b8173ffffffffffffffffffffffffffffffffffffffff168373ffffffffffffffffffffffffffffffffffffffff161415612034576040517f08c379a000000000000000000000000000000000000000000000000000000000815260040161202b90613600565b60405180910390fd5b80600560008573ffffffffffffffffffffffffffffffffffffffff1673ffffffffffffffffffffffffffffffffffffffff16815260200190815260200160002060008473ffffffffffffffffffffffffffffffffffffffff1673ffffffffffffffffffffffffffffffffffffffff16815260200190815260200160002060006101000a81548160ff0219169083151502179055508173ffffffffffffffffffffffffffffffffffffffff168373ffffffffffffffffffffffffffffffffffffffff167f17307eab39ab6107e8899845ad3d59bd9653f200f220920489ca2b5937696c31836040516121259190613523565b60405180910390a3505050565b61213d848484611ba1565b6121498484848461231f565b612188576040517f08c379a000000000000000000000000000000000000000000000000000000000815260040161217f90613580565b60405180910390fd5b50505050565b606060405180602001604052806000815250905090565b60606121b082611a00565b60006121ba61218e565b905060008151116121da5760405180602001604052806000815250612205565b806121e4846124b6565b6040516020016121f5929190613476565b6040516020818303038152906040525b915050919050565b60007f01ffc9a7000000000000000000000000000000000000000000000000000000007bffffffffffffffffffffffffffffffffffffffffffffffffffffffff1916827bffffffffffffffffffffffffffffffffffffffffffffffffffffffff1916149050919050565b60008073ffffffffffffffffffffffffffffffffffffffff1661229983611e9b565b73ffffffffffffffffffffffffffffffffffffffff1614159050919050565b50505050565b50505050565b6122ce83836125da565b6122db600084848461231f565b61231a576040517f08c379a000000000000000000000000000000000000000000000000000000000815260040161231190613580565b60405180910390fd5b505050565b60006123408473ffffffffffffffffffffffffffffffffffffffff166127f8565b156124a9578373ffffffffffffffffffffffffffffffffffffffff1663150b7a02612369611a4b565b8786866040518563ffffffff1660e01b815260040161238b94939291906134b5565b602060405180830381600087803b1580156123a557600080fd5b505af19250505080156123d657506040513d601f19601f820116820180604052508101906123d39190612f40565b60015b612459573d8060008114612406576040519150601f19603f3d011682016040523d82523d6000602084013e61240b565b606091505b50600081511415612451576040517f08c379a000000000000000000000000000000000000000000000000000000000815260040161244890613580565b60405180910390fd5b805181602001fd5b63150b7a0260e01b7bffffffffffffffffffffffffffffffffffffffffffffffffffffffff1916817bffffffffffffffffffffffffffffffffffffffffffffffffffffffff1916149150506124ae565b600190505b949350505050565b6060600060016124c58461281b565b01905060008167ffffffffffffffff81111561250a577f4e487b7100000000000000000000000000000000000000000000000000000000600052604160045260246000fd5b6040519080825280601f01601f19166020018201604052801561253c5781602001600182028036833780820191505090505b509050600082602001820190505b6001156125cf578080600190039150507f3031323334353637383961626364656600000000000000000000000000000000600a86061a8153600a85816125b9577f4e487b7100000000000000000000000000000000000000000000000000000000600052601260045260246000fd5b04945060008514156125ca576125cf565b61254a565b819350505050919050565b600073ffffffffffffffffffffffffffffffffffffffff168273ffffffffffffffffffffffffffffffffffffffff16141561264a576040517f08c379a000000000000000000000000000000000000000000000000000000000815260040161264190613680565b60405180910390fd5b61265381612277565b15612693576040517f08c379a000000000000000000000000000000000000000000000000000000000815260040161268a906135c0565b60405180910390fd5b6126a16000838360016122b8565b6126aa81612277565b156126ea576040517f08c379a00000000000000000000000000000000000000000000000000000000081526004016126e1906135c0565b60405180910390fd5b6001600360008473ffffffffffffffffffffffffffffffffffffffff1673ffffffffffffffffffffffffffffffffffffffff16815260200190815260200160002060008282540192505081905550816002600083815260200190815260200160002060006101000a81548173ffffffffffffffffffffffffffffffffffffffff021916908373ffffffffffffffffffffffffffffffffffffffff160217905550808273ffffffffffffffffffffffffffffffffffffffff16600073ffffffffffffffffffffffffffffffffffffffff167fddf252ad1be2c89b69c2b068fc378daa952ba7f163c4a11628f55a4df523b3ef60405160405180910390a46127f46000838360016122be565b5050565b6000808273ffffffffffffffffffffffffffffffffffffffff163b119050919050565b600080600090507a184f03e93ff9f4daa797ed6e38ed64bf6a1f010000000000000000831061289f577a184f03e93ff9f4daa797ed6e38ed64bf6a1f0100000000000000008381612895577f4e487b7100000000000000000000000000000000000000000000000000000000600052601260045260246000fd5b0492506040810190505b6d04ee2d6d415b85acef81000000008310612902576d04ee2d6d415b85acef810000000083816128f8577f4e487b7100000000000000000000000000000000000000000000000000000000600052601260045260246000fd5b0492506020810190505b662386f26fc10000831061295757662386f26fc10000838161294d577f4e487b7100000000000000000000000000000000000000000000000000000000600052601260045260246000fd5b0492506010810190505b6305f5e10083106129a6576305f5e100838161299c577f4e487b7100000000000000000000000000000000000000000000000000000000600052601260045260246000fd5b0492506008810190505b61271083106129f15761271083816129e7577f4e487b7100000000000000000000000000000000000000000000000000000000600052601260045260246000fd5b0492506004810190505b60648310612a3a5760648381612a30577f4e487b7100000000000000000000000000000000000000000000000000000000600052601260045260246000fd5b0492506002810190505b600a8310612a49576001810190505b80915050919050565b828054612a5e90613979565b90600052602060002090601f016020900481019282612a805760008555612ac7565b82601f10612a9957805160ff1916838001178555612ac7565b82800160010185558215612ac7579182015b82811115612ac6578251825591602001919060010190612aab565b5b509050612ad49190612b43565b5090565b6040518060e001604052806000815260200160608152602001600073ffffffffffffffffffffffffffffffffffffffff168152602001600073ffffffffffffffffffffffffffffffffffffffff16815260200160008152602001600015158152602001606081525090565b5b80821115612b5c576000816000905550600101612b44565b5090565b6000612b73612b6e84613740565b61371b565b90508083825260208201905082856020860282011115612b9257600080fd5b60005b85811015612bc25781612ba88882612d1a565b845260208401935060208301925050600181019050612b95565b5050509392505050565b6000612bdf612bda8461376c565b61371b565b905082815260208101848484011115612bf757600080fd5b612c02848285613937565b509392505050565b6000612c1d612c188461379d565b61371b565b905082815260208101848484011115612c3557600080fd5b612c40848285613937565b509392505050565b600081359050612c5781613e08565b92915050565b600082601f830112612c6e57600080fd5b8135612c7e848260208601612b60565b91505092915050565b600081359050612c9681613e1f565b92915050565b600081359050612cab81613e36565b92915050565b600081519050612cc081613e36565b92915050565b600082601f830112612cd757600080fd5b8135612ce7848260208601612bcc565b91505092915050565b600082601f830112612d0157600080fd5b8135612d11848260208601612c0a565b91505092915050565b600081359050612d2981613e4d565b92915050565b600060208284031215612d4157600080fd5b6000612d4f84828501612c48565b91505092915050565b60008060408385031215612d6b57600080fd5b6000612d7985828601612c48565b9250506020612d8a85828601612c48565b9150509250929050565b600080600060608486031215612da957600080fd5b6000612db786828701612c48565b9350506020612dc886828701612c48565b9250506040612dd986828701612d1a565b9150509250925092565b60008060008060808587031215612df957600080fd5b6000612e0787828801612c48565b9450506020612e1887828801612c48565b9350506040612e2987828801612d1a565b925050606085013567ffffffffffffffff811115612e4657600080fd5b612e5287828801612cc6565b91505092959194509250565b60008060408385031215612e7157600080fd5b6000612e7f85828601612c48565b9250506020612e9085828601612c87565b9150509250929050565b60008060408385031215612ead57600080fd5b6000612ebb85828601612c48565b9250506020612ecc85828601612d1a565b9150509250929050565b600060208284031215612ee857600080fd5b600082013567ffffffffffffffff811115612f0257600080fd5b612f0e84828501612c5d565b91505092915050565b600060208284031215612f2957600080fd5b6000612f3784828501612c9c565b91505092915050565b600060208284031215612f5257600080fd5b6000612f6084828501612cb1565b91505092915050565b600080600060608486031215612f7e57600080fd5b600084013567ffffffffffffffff811115612f9857600080fd5b612fa486828701612cf0565b9350506020612fb586828701612d1a565b925050604084013567ffffffffffffffff811115612fd257600080fd5b612fde86828701612cf0565b9150509250925092565b600060208284031215612ffa57600080fd5b600061300884828501612d1a565b91505092915050565b6000806040838503121561302457600080fd5b600061303285828601612d1a565b925050602061304385828601612d1a565b9150509250929050565b600061305983836133b5565b905092915050565b61306a816138c3565b82525050565b613079816138b1565b82525050565b600061308a826137de565b613094818561380c565b9350836020820285016130a6856137ce565b8060005b858110156130e257848403895281516130c3858261304d565b94506130ce836137ff565b925060208a019950506001810190506130aa565b50829750879550505050505092915050565b6130fd816138d5565b82525050565b61310c816138d5565b82525050565b600061311d826137e9565b613127818561381d565b9350613137818560208601613946565b61314081613ab2565b840191505092915050565b6000613156826137f4565b613160818561382e565b9350613170818560208601613946565b61317981613ab2565b840191505092915050565b600061318f826137f4565b613199818561383f565b93506131a9818560208601613946565b6131b281613ab2565b840191505092915050565b60006131c8826137f4565b6131d28185613850565b93506131e2818560208601613946565b80840191505092915050565b60006131fb602d8361383f565b915061320682613ac3565b604082019050919050565b600061321e60328361383f565b915061322982613b12565b604082019050919050565b600061324160258361383f565b915061324c82613b61565b604082019050919050565b6000613264601c8361383f565b915061326f82613bb0565b602082019050919050565b600061328760248361383f565b915061329282613bd9565b604082019050919050565b60006132aa60198361383f565b91506132b582613c28565b602082019050919050565b60006132cd60178361383f565b91506132d882613c51565b602082019050919050565b60006132f060298361383f565b91506132fb82613c7a565b604082019050919050565b6000613313602e8361383f565b915061331e82613cc9565b604082019050919050565b600061333660208361383f565b915061334182613d18565b602082019050919050565b600061335960188361383f565b915061336482613d41565b602082019050919050565b600061337c60218361383f565b915061338782613d6a565b604082019050919050565b600061339f603d8361383f565b91506133aa82613db9565b604082019050919050565b600060e0830160008301516133cd6000860182613458565b50602083015184820360208601526133e5828261314b565b91505060408301516133fa6040860182613061565b50606083015161340d6060860182613061565b5060808301516134206080860182613458565b5060a083015161343360a08601826130f4565b5060c083015184820360c086015261344b828261314b565b9150508091505092915050565b6134618161392d565b82525050565b6134708161392d565b82525050565b600061348282856131bd565b915061348e82846131bd565b91508190509392505050565b60006020820190506134af6000830184613070565b92915050565b60006080820190506134ca6000830187613070565b6134d76020830186613070565b6134e46040830185613467565b81810360608301526134f68184613112565b905095945050505050565b6000602082019050818103600083015261351b818461307f565b905092915050565b60006020820190506135386000830184613103565b92915050565b600060208201905081810360008301526135588184613184565b905092915050565b60006020820190508181036000830152613579816131ee565b9050919050565b6000602082019050818103600083015261359981613211565b9050919050565b600060208201905081810360008301526135b981613234565b9050919050565b600060208201905081810360008301526135d981613257565b9050919050565b600060208201905081810360008301526135f98161327a565b9050919050565b600060208201905081810360008301526136198161329d565b9050919050565b60006020820190508181036000830152613639816132c0565b9050919050565b60006020820190508181036000830152613659816132e3565b9050919050565b6000602082019050818103600083015261367981613306565b9050919050565b6000602082019050818103600083015261369981613329565b9050919050565b600060208201905081810360008301526136b98161334c565b9050919050565b600060208201905081810360008301526136d98161336f565b9050919050565b600060208201905081810360008301526136f981613392565b9050919050565b60006020820190506137156000830184613467565b92915050565b6000613725613736565b905061373182826139ab565b919050565b6000604051905090565b600067ffffffffffffffff82111561375b5761375a613a83565b5b602082029050602081019050919050565b600067ffffffffffffffff82111561378757613786613a83565b5b61379082613ab2565b9050602081019050919050565b600067ffffffffffffffff8211156137b8576137b7613a83565b5b6137c182613ab2565b9050602081019050919050565b6000819050602082019050919050565b600081519050919050565b600081519050919050565b600081519050919050565b6000602082019050919050565b600082825260208201905092915050565b600082825260208201905092915050565b600082825260208201905092915050565b600082825260208201905092915050565b600081905092915050565b60006138668261392d565b91506138718361392d565b9250827fffffffffffffffffffffffffffffffffffffffffffffffffffffffffffffffff038211156138a6576138a5613a25565b5b828201905092915050565b60006138bc8261390d565b9050919050565b60006138ce8261390d565b9050919050565b60008115159050919050565b60007fffffffff0000000000000000000000000000000000000000000000000000000082169050919050565b600073ffffffffffffffffffffffffffffffffffffffff82169050919050565b6000819050919050565b82818337600083830152505050565b60005b83811015613964578082015181840152602081019050613949565b83811115613973576000848401525b50505050565b6000600282049050600182168061399157607f821691505b602082108114156139a5576139a4613a54565b5b50919050565b6139b482613ab2565b810181811067ffffffffffffffff821117156139d3576139d2613a83565b5b80604052505050565b60006139e78261392d565b91507fffffffffffffffffffffffffffffffffffffffffffffffffffffffffffffffff821415613a1a57613a19613a25565b5b600182019050919050565b7f4e487b7100000000000000000000000000000000000000000000000000000000600052601160045260246000fd5b7f4e487b7100000000000000000000000000000000000000000000000000000000600052602260045260246000fd5b7f4e487b7100000000000000000000000000000000000000000000000000000000600052604160045260246000fd5b6000601f19601f8301169050919050565b7f4552433732313a2063616c6c6572206973206e6f7420746f6b656e206f776e6560008201527f72206f7220617070726f76656400000000000000000000000000000000000000602082015250565b7f4552433732313a207472616e7366657220746f206e6f6e20455243373231526560008201527f63656976657220696d706c656d656e7465720000000000000000000000000000602082015250565b7f4552433732313a207472616e736665722066726f6d20696e636f72726563742060008201527f6f776e6572000000000000000000000000000000000000000000000000000000602082015250565b7f4552433732313a20746f6b656e20616c7265616479206d696e74656400000000600082015250565b7f4552433732313a207472616e7366657220746f20746865207a65726f2061646460008201527f7265737300000000000000000000000000000000000000000000000000000000602082015250565b7f4552433732313a20617070726f766520746f2063616c6c657200000000000000600082015250565b7f50726963652043616e2774206265206e65676174697665000000000000000000600082015250565b7f4552433732313a2061646472657373207a65726f206973206e6f74206120766160008201527f6c6964206f776e65720000000000000000000000000000000000000000000000602082015250565b7f45524337323155524953746f726167653a2055524920736574206f66206e6f6e60008201527f6578697374656e7420746f6b656e000000000000000000000000000000000000602082015250565b7f4552433732313a206d696e7420746f20746865207a65726f2061646472657373600082015250565b7f4552433732313a20696e76616c696420746f6b656e2049440000000000000000600082015250565b7f4552433732313a20617070726f76616c20746f2063757272656e74206f776e6560008201527f7200000000000000000000000000000000000000000000000000000000000000602082015250565b7f4552433732313a20617070726f76652063616c6c6572206973206e6f7420746f60008201527f6b656e206f776e6572206f7220617070726f76656420666f7220616c6c000000602082015250565b613e11816138b1565b8114613e1c57600080fd5b50565b613e28816138d5565b8114613e3357600080fd5b50565b613e3f816138e1565b8114613e4a57600080fd5b50565b613e568161392d565b8114613e6157600080fd5b5056fea2646970667358221220a65929cfa4ce895710c624130fb095a996bac74d28098c74c477f7596f06128664736f6c63430008010033",
  "linkReferences": {},
  "deployedLinkReferences": {}
}